:020000040800F2
:1000000000000220C13E0008DD330008E333000891
:10001000E9330008EF330008F53300080000000062
:1000200000000000000000000000000021C50008E2
:10003000FB3300080000000071C700087994000835
:10004000113F0008113F0008113F0008113F000850
:10005000113F0008113F0008113F0008113F000840
:10006000113F0008113F000809340008113F000843
:10007000113F0008113F000819340008113F000823
:10008000113F0008113F0008113F0008113F000810
:100090002D34000841340008113F00085534000891
:1000A000113F0008113F0008113F0008113F0008F0
:1000B000113F0008113F0008113F0008113F0008E0
:1000C000113F0008113F0008113F0008113F0008D0
:1000D000113F0008113F0008713400088534000802
:1000E000113F0008113F0008113F0008113F0008B0
:1000F000113F0008113F0008113F0008113F0008A0
:10010000113F0008113F0008113F0008113F00088F
:10011000113F0008113F000899340008113F000802
:10012000113F0008113F0008AD340008113F0008DE
:10013000113F00080000000000000000113F00080F
:10014000113F0008113F0008113F0008113F00084F
:10015000113F0008113F0008113F0008113F00083F
:10016000113F0008113F0008113F0008113F00082F
:10017000113F0008113F00080000000000000000CF
:08018000113F0008113F0008C7
:1001900010B5054C237833B9044B13B10448AFF3C1
:1001A00000800123237010BD3C02002000000000ED
:1001B000740F010808B5034B1BB103490348AFF3A3
:1001C000008008BD0000000040020020740F0108FC
:1001D000034613F8012B002AFBD1181A0138704787
:1001E00001F0FF01102A2BDB10F0070F08D010F8E8
:1001F000013B013A8B422DD010F0070F42B3F6D1EC
:10020000F0B441EA012141EA014122F007047FF004
:1002100000070023F0E80256083C85EA010586EA5B
:10022000010685FA47F5A3FA87F586FA47F6A5FA97
:1002300087F68EB9EED1F0BC01F0FF0102F00702A3
:1002400032B110F8013B013A83EA010313B1F8D14E
:100250000020704701387047002D06BF354603382F
:10026000073815F0010F07D1013015F4807F02BF68
:10027000013015F4C03F0130F0BC0138704700BFB9
:1002800081F0004102E000BF83F0004330B54FEA47
:1002900041044FEA430594EA050F08BF90EA020FB4
:1002A0001FBF54EA000C55EA020C7FEA645C7FEA47
:1002B000655C00F0E2804FEA5454D4EB5555B8BF6A
:1002C0006D420CDD2C4480EA020281EA030382EADB
:1002D000000083EA010180EA020281EA0303362D6D
:1002E00088BF30BD11F0004F4FEA01314FF4801C40
:1002F0004CEA113102D0404261EB410113F0004F52
:100300004FEA03334CEA133302D0524263EB430308
:1003100094EA050F00F0A780A4F10104D5F1200EA6
:100320000DDB02FA0EFC22FA05F2801841F1000101
:1003300003FA0EF2801843FA05F359410EE0A5F1D5
:1003400020050EF1200E012A03FA0EFC28BF4CF006
:10035000020C43FA05F3C01851EBE37101F00045BC
:1003600007D54FF0000EDCF1000C7EEB00006EEBC9
:100370000101B1F5801F1BD3B1F5001F0CD3490853
:100380005FEA30004FEA3C0C04F101044FEA4452AA
:1003900012F5800F80F09A80BCF1004F08BF5FEA31
:1003A000500C50F1000041EB045141EA050130BD11
:1003B0005FEA4C0C404141EB0101013C28BFB1F523
:1003C000801FE9D291F0000F04BF01460020B1FA6E
:1003D00081F308BF2033A3F10B03B3F120020CDA41
:1003E0000C3208DD02F1140CC2F10C0201FA0CF01F
:1003F00021FA02F10CE002F11402D8BFC2F1200C84
:1004000001FA02F120FA0CFCDCBF41EA0C01904039
:10041000E41AA2BF01EB0451294330BD6FEA040482
:100420001F3C1CDA0C340EDC04F11404C4F120026D
:1004300020FA04F001FA02F340EA030021FA04F37F
:1004400045EA030130BDC4F10C04C4F1200220FAD6
:1004500002F001FA04F340EA0300294630BD21FA14
:1004600004F0294630BD94F0000F83F4801306BFDA
:1004700081F480110134013D4EE77FEA645C18BFCE
:100480007FEA655C29D094EA050F08BF90EA020F65
:1004900005D054EA000C04BF1946104630BD91EA5D
:1004A000030F1EBF0021002030BD5FEA545C05D160
:1004B0004000494128BF41F0004130BD14F580049F
:1004C0003CBF01F5801130BD01F0004545F0FE4113
:1004D00041F470014FF0000030BD7FEA645C1ABF48
:1004E000194610467FEA655C1CBF0B46024650EA7F
:1004F000013406BF52EA033591EA030F41F40021AB
:1005000030BD00BF90F0000F04BF0021704730B530
:100510004FF4806404F132044FF000054FF0000105
:1005200050E700BF90F0000F04BF0021704730B5C6
:100530004FF4806404F1320410F0004548BF40429B
:100540004FF000013EE700BF42004FEAE2014FEAF0
:1005500031014FEA02701FBF12F07F4393F07F4FCB
:1005600081F06051704732F07F4208BF704793F0CE
:100570007F4F04BF41F40021704730B54FF46074E1
:1005800001F0004521F000411CE700BF50EA0102E4
:1005900008BF704730B54FF000050AE050EA01028D
:1005A00008BF704730B511F0004502D5404261EBFD
:1005B00041014FF4806404F132045FEA915C3FF43E
:1005C000D8AE4FF003025FEADC0C18BF03325FEADB
:1005D000DC0C18BF033202EBDC02C2F1200300FA8C
:1005E00003FC20FA02F001FA03FE40EA0E0021FAB1
:1005F00002F11444BDE600BF70B54FF0FF0C4CF49F
:10060000E06C1CEA11541DBF1CEA135594EA0C0F50
:1006100095EA0C0F00F0DEF82C4481EA030621EA8B
:100620004C5123EA4C5350EA013518BF52EA0335C6
:1006300041F4801143F4801338D0A0FB02CE4FF078
:100640000005E1FB02E506F00042E0FB03E54FF0A8
:100650000006E1FB03569CF0000F18BF4EF0010EA0
:10066000A4F1FF04B6F5007F64F5407404D25FEA9C
:100670004E0E6D4146EB060642EAC62141EA55514F
:100680004FEAC52040EA5E504FEACE2EB4F1FD0C91
:1006900088BFBCF5E06F1ED8BEF1004F08BF5FEA0F
:1006A000500E50F1000041EB045170BD06F00046C1
:1006B00046EA010140EA020081EA0301B4EB5C046E
:1006C000C2BFD4EB0C0541EA045170BD41F4801166
:1006D0004FF0000E013C00F3AB8014F1360FDEBF8B
:1006E000002001F0004170BDC4F10004203C35DA67
:1006F0000C341BDC04F11404C4F1200500FA05F3EA
:1007000020FA04F001FA05F240EA020001F000428A
:1007100021F0004110EBD37021FA04F642EB060100
:100720005EEA430E08BF20EAD37070BDC4F10C042A
:10073000C4F1200500FA04F320FA05F001FA04F2EE
:1007400040EA020001F0004110EBD37041F10001DA
:100750005EEA430E08BF20EAD37070BDC4F12005E5
:1007600000FA05F24EEA020E20FA04F301FA05F24D
:1007700043EA020321FA04F001F0004121FA04F2F5
:1007800020EA020000EBD3705EEA430E08BF20EAC5
:10079000D37070BD94F0000F0FD101F000464000FF
:1007A00041EB010111F4801F08BF013CF7D041EA81
:1007B000060195F0000F18BF704703F00046520085
:1007C00043EB030313F4801F08BF013DF7D043EA56
:1007D0000603704794EA0C0F0CEA135518BF95EA0C
:1007E0000C0F0CD050EA410618BF52EA4306D1D193
:1007F00081EA030101F000414FF0000070BD50EAB2
:10080000410606BF1046194652EA430619D094EA3B
:100810000C0F02D150EA013613D195EA0C0F05D125
:1008200052EA03361CBF104619460AD181EA030179
:1008300001F0004141F0FE4141F470014FF0000031
:1008400070BD41F0FE4141F4780170BD70B54FF0CC
:10085000FF0C4CF4E06C1CEA11541DBF1CEA13554C
:1008600094EA0C0F95EA0C0F00F0A7F8A4EB05042E
:1008700081EA030E52EA03354FEA013100F0888025
:100880004FEA03334FF0805545EA131343EA1263EE
:100890004FEA022245EA111545EA10654FEA0026A3
:1008A0000EF000419D4208BF964244F1FD0404F55C
:1008B000407402D25B084FEA3202B61A65EB0305B8
:1008C0005B084FEA32024FF480104FF4002CB6EB75
:1008D000020E75EB030E22BFB61A754640EA0C00F5
:1008E0005B084FEA3202B6EB020E75EB030E22BF35
:1008F000B61A754640EA5C005B084FEA3202B6EB76
:10090000020E75EB030E22BFB61A754640EA9C0034
:100910005B084FEA3202B6EB020E75EB030E22BF04
:10092000B61A754640EADC0055EA060E18D04FEAC2
:10093000051545EA16754FEA06164FEAC30343EA62
:1009400052734FEAC2025FEA1C1CC0D111F4801F2F
:100950000BD141EA00014FF000004FF0004CB6E728
:1009600011F4801F04BF01430020B4F1FD0C88BFC7
:10097000BCF5E06F3FF6AFAEB5EB030C04BFB6EBD2
:10098000020C5FEA500C50F1000041EB045170BDC5
:100990000EF0004E4EEA113114EB5C04C2BFD4EBF2
:1009A0000C0541EA045170BD41F480114FF0000E76
:1009B000013C90E645EA060E8DE60CEA135594EAF2
:1009C0000C0F08BF95EA0C0F3FF43BAF94EA0C0FF5
:1009D0000AD150EA01347FF434AF95EA0C0F7FF46A
:1009E00025AF104619462CE795EA0C0F06D152EABE
:1009F00003353FF4FDAE1046194622E750EA4106A2
:100A000018BF52EA43067FF4C5AE50EA41047FF4B2
:100A10000DAF52EA43057FF4EBAE12E74FF0FF3C17
:100A200006E000BF4FF0010C02E000BF4FF0010CE8
:100A30004DF804CD4FEA410C7FEA6C5C4FEA430C61
:100A400018BF7FEA6C5C1BD001B050EA410C0CBFB0
:100A500052EA430C91EA030F02BF90EA020F002012
:100A6000704710F1000F91EA030F58BF994208BF79
:100A700090422CBFD8176FEAE37040F00100704736
:100A80004FEA410C7FEA6C5C02D150EA013C07D18D
:100A90004FEA430C7FEA6C5CD6D152EA033CD3D0D8
:100AA0005DF8040B704700BF8446104662468C46D2
:100AB0001946634600E000BF01B5FFF7B7FF002805
:100AC00048BF10F1000F01BD4DF808EDFFF7F4FF2E
:100AD0000CBF012000205DF808FB00BF4DF808EDB9
:100AE000FFF7EAFF34BF012000205DF808FB00BFDC
:100AF0004DF808EDFFF7E0FF94BF012000205DF8FE
:100B000008FB00BF4DF808EDFFF7CEFF94BF0120B2
:100B100000205DF808FB00BF4DF808EDFFF7C4FFAB
:100B200034BF012000205DF808FB00BF4FEA410CF4
:100B30007FEA6C5C02D150EA013C0AD14FEA430CD7
:100B40007FEA6C5C02D152EA033C02D14FF0000014
:100B500070474FF0010070474FEA410212F5001252
:100B600015D211D56FF47873B3EB625212D94FEAF4
:100B7000C12343F0004343EA505311F0004F23FADE
:100B800002F018BF404270474FF00000704750EA33
:100B9000013005D111F0004008BF6FF000407047F0
:100BA0004FF00000704700BF53B94AB9002908BF91
:100BB00000281CBF4FF0FF314FF0FF3000F074B938
:100BC000ADF1080C6DE904CE00F006F8DDF804E0A4
:100BD000DDE9022304B070472DE9F047089D044683
:100BE0008E46002B4DD18A42944669D9B2FA82F2E0
:100BF00052B101FA02F3C2F1200120FA01F10CFA1C
:100C000002FC41EA030E94404FEA1C48210CBEFB53
:100C1000F8F61FFA8CF708FB16E341EA034306FBDC
:100C200007F199420AD91CEB030306F1FF3080F06B
:100C30001F81994240F21C81023E63445B1AA4B2B8
:100C4000B3FBF8F008FB103344EA034400FB07F75A
:100C5000A7420AD91CEB040400F1FF3380F00A819B
:100C6000A74240F207816444023840EA0640E41B90
:100C700000261DB1D4400023C5E900433146BDE83C
:100C8000F0878B4209D9002D00F0EF800026C5E9DE
:100C9000000130463146BDE8F087B3FA83F6002EF6
:100CA0004AD18B4202D3824200F2F980841A61EB6E
:100CB000030301209E46002DE0D0C5E9004EDDE78C
:100CC00002B9FFDEB2FA82F2002A40F09280A1EB74
:100CD0000C014FEA1C471FFA8CFE0126200CB1FBC9
:100CE000F7F307FB131140EA01410EFB03F08842C2
:100CF00008D91CEB010103F1FF3802D2884200F24F
:100D0000CB804346091AA4B2B1FBF7F007FB1011E0
:100D100044EA01440EFB00FEA64508D91CEB04047E
:100D200000F1FF3102D2A64500F2BB800846A4EBD9
:100D30000E0440EA03409CE7C6F12007B34022FAC4
:100D400007FC4CEA030C20FA07F401FA06F31C43F3
:100D5000F9404FEA1C4900FA06F3B1FBF9F8200C00
:100D60001FFA8CFE09FB181140EA014108FB0EF046
:100D7000884202FA06F20BD91CEB010108F1FF3A96
:100D800080F08880884240F28580A8F102086144A2
:100D9000091AA4B2B1FBF9F009FB101144EA0141B0
:100DA00000FB0EFE8E4508D91CEB010100F1FF345B
:100DB0006CD28E456AD90238614440EA0840A0FBF3
:100DC0000294A1EB0E01A142C846A64656D353D0C9
:100DD0005DB1B3EB080261EB0E0101FA07F722FAED
:100DE00006F3F1401F43C5E9007100263146BDE816
:100DF000F087C2F12003D8400CFA02FC21FA03F379
:100E0000914001434FEA1C471FFA8CFEB3FBF7F0F9
:100E100007FB10360B0C43EA064300FB0EF69E421E
:100E200004FA02F408D91CEB030300F1FF382FD2B7
:100E30009E422DD9023863449B1B89B2B3FBF7F65F
:100E400007FB163341EA034106FB0EF38B4208D938
:100E50001CEB010106F1FF3816D28B4214D9023E79
:100E60006144C91A46EA004638E72E46284605E797
:100E70000646E3E61846F8E64B45A9D2B9EB020868
:100E800064EB0C0E0138A3E74646EAE7204694E7F8
:100E90004046D1E7D0467BE7023B614432E730462B
:100EA00009E76444023842E7704700BF80B582B06A
:100EB00000AF78604FF41F73044A0021044805F026
:100EC0006BFD00BF0837BD4680BD00BF5802002043
:100ED0006809002080B49DB000AF786008461146D4
:100EE0001A460346FB700B46BB7013467B70BB78FB
:100EF0001A02FB7813441A027B7813441A467B6863
:100F00009B0070333B4443F8642C0023FB662CE0C9
:100F10007B689B0070333B4453F8643C0121FA6EBC
:100F200001FA02F21340002B0ED07A6813469200A9
:100F30009B1ADB001A46FB6ED31A03F51073104A96
:100F4000432122F813100DE07A68134692009B1A91
:100F5000DB001A46FB6ED31A03F51073084A2121F1
:100F600022F81310FB6E0133FB66FB6E172BCFDDEF
:100F700000BF00BF7437BD465DF8047B704700BFFB
:100F80005802002080B487B000AF0346FB710B46C7
:100F9000BB7113467B71BB791A02FB7913441A02A9
:100FA0007B791344FB6018237B612DE000233B61B8
:100FB00024E001223B6902FA03F31A46FB6813405E
:100FC000002B0CD07A6913465B001344DB001A46F1
:100FD0003B69D31A114A432122F813100BE07A69B6
:100FE00013465B001344DB001A463B69D31A0B4AD5
:100FF000212122F813103B6901333B613B69172B18
:10100000D7DD7B69013B7B617B69002BCEDC00BFB8
:1010100000BF1C37BD465DF8047B704758020020B6
:1010200080B500AF174B184A1A60164B06225A605B
:10103000144B00229A60134B0022DA60114B4FF4DC
:1010400010221A610F4B4FF400125A610D4B00220F
:101050001A760C4B01225A760A4B00229A76094BDB
:101060000022DA76074B00221A77064B00225A77C5
:10107000044802F0B5FF0346002B01D002F06AF8E5
:1010800000BF80BDC40700200064004080B58AB066
:1010900000AF786007F1140300221A605A609A606A
:1010A000DA601A617B681B68214A93423CD10023B5
:1010B0003B61204B1B6C1F4A43F0007313641D4BB4
:1010C0001B6C03F000733B613B690023FB60194B11
:1010D0001B6B184A43F002031363164B1B6B03F0A0
:1010E0000203FB60FB684FF440737B610223BB612A
:1010F0000023FB6103233B6209237B6207F1140396
:1011000019460D4804F010FB00220521142003F0BD
:10111000D1FE142003F0EAFE00220521152003F081
:10112000C9FE152003F0E2FE00BF2837BD4680BD92
:1011300000640040003802400004024080B500AF67
:10114000142003F0E1FE152003F0DEFE00BF80BD99
:1011500080B500AF142003F0C9FE152003F0C6FED1
:1011600000BF80BD80B584B000AFF860B9601346A1
:10117000FB71244B00225A61224B00229A61214BC1
:101180000122DA61FB68DB001B0C1E4A1360FB685E
:10119000DB009BB2FA79920013431A4A5360BB6892
:1011A000DB001B0C174A9360BB68DB009BB2FA792B
:1011B00092001343134AD360124B00221A61114B61
:1011C00001221A620F4B00225A620F4803F0E4F822
:1011D0000346002B01D001F0BDFF02210A4803F0B5
:1011E00041FB0346002B00D0FEE70649064802F00B
:1011F000F3FF0346002B01D001F0ACFF00BF103716
:10120000BD4680BD9C070020C407002080B58CB07F
:1012100000AFF860B96011461A460B46FB711346E1
:10122000BB71FB687B61FB68BB6100233B62BB79E0
:10123000002B01D0042300E00023FB61FB797B62DB
:10124000002387F828300E4803F0C5F903463B61B8
:101250003B69002B0DD007F1100307F11401BA68A8
:10126000074803F0DDF80346FB62FB6A002B00D061
:10127000FEE7012008F0DBFA00BF3037BD4680BD35
:10128000C407002080B584B000AF3B600346FB710B
:101290000B46BB801346BB710023BB600023FB6081
:1012A0003B7E013B032B17D801A252F823F000BF6D
:1012B000C1120008C7120008CD120008D31200089E
:1012C0002F233B7208E02B233B7205E027233B7260
:1012D00002E023233B7200BF07F108030133BA8801
:1012E0001A80BB79FB7207F1080304333A7E394652
:1012F00018460BF00EFEFB7903F5C063184607F1A4
:10130000080100230822FFF781FF00BF1037BD4608
:1013100080BD00BF80B584B000AF03460A46FB71B4
:101320001346BB710023BB600023FB60FB79012BDC
:1013300002D180233B7201E001233B72BB797B72B7
:1013400007F10801002308220020FFF75FFF00BF1C
:101350001037BD4680BD000082B090B589B002AFA5
:1013600007F1280484E80C000346FB710B46BB80A0
:101370000023FB600023FB8200237B7597F83C3041
:10138000042B07D997F83C30194658480CF0D6FA88
:101390000023A4E0BB88B3F5B05F0DD3BB88B3F5E1
:1013A000C05F09D2BB88A3F5AF531E3B9BB21B02A3
:1013B000FB82FF237B7521E0BB88B3F5D05F16D39A
:1013C000BB88B3F5E05F12D2BB88A3F5D0539BB2C4
:1013D0001B029BB203F5C073FB8297F83830002BD9
:1013E00002D1FE237B7509E0FF237B7506E0BB88F5
:1013F00019463F480CF0A2FA002370E0FB79194629
:101400000120FFF787FF00233B615DE0B988F87991
:101410000123009300230022FFF734FF3B6907F10B
:10142000280232F813301B0207F130013A690A44EE
:10143000127813441B0207F134013A690A44127806
:101440001344FB603B69DBB20133DAB2B988F87947
:1014500004230093FB68FFF715FFBB88A3F5007317
:1014600099B2FA8AFB7913441A46F8790423009357
:1014700013460122FFF706FFBB88A3F5007399B25C
:101480007B7DF879012200920222FFF7FBFEBB88E8
:10149000A3F5007399B297F838305B00DBB20333E1
:1014A000DAB27B8F1C46F879022300932346FFF7BC
:1014B000E9FEB988F8790123009301230022FFF7A0
:1014C000E1FE3B6901333B6197F83C303A699A424F
:1014D0009CDBFB7919460220FFF71CFF012318460D
:1014E0001C37BD46BDE8904002B07047900F010820
:1014F000A80F010880B582B000AF3A601A460346D3
:10150000FB710B46BB801346BB71BB88A3F5C05271
:10151000FB7913441846BA7900233968FFF776FE41
:1015200000BF0837BD4680BD90B585B000AF04460A
:10153000084611461A462346FB710346BB800B46FC
:101540007B8013463B807B88DBB23B727B881B0A27
:101550009BB2DBB27B723B88DBB2BB723B881B0A5F
:101560009BB2DBB2FB7207F10802B988F879042359
:10157000FFF7C0FF00BF1437BD4690BD80B586B0F1
:1015800002AF0346FB71FB79012B39D10023FB60CD
:1015900032E0FB68DBB20133D8B2022300930023B0
:1015A000002246F24001FFF76DFEFB68DBB201331B
:1015B000D8B2022300930623002246F24001FFF72F
:1015C00061FEFB68DBB20133D8B20223009307232C
:1015D000002246F24001FFF755FEFB68DBB2013303
:1015E000D8B2022300930F23002246F24001FFF7F6
:1015F00049FEFB680133FB60FB68012BC9DD14E089
:101600000023BB600EE0BB68DBB20133D8B202231B
:1016100000930023002246F24001FFF733FEBB682F
:101620000133BB60BB68012BEDDD00BF1037BD4649
:1016300080BD000080B582B000AF7860084B094AD9
:101640000021094802F0FCFF0346002B00D0FEE712
:10165000064B01221A6000BF0837BD4680BD00BF9F
:101660005407002064070020C40700205007002012
:1016700080B582B000AF7860094B0A4A01210A4860
:1016800002F0DEFF0346002B00D0FEE707480CF017
:10169000DBF9074B01221A6000BF0837BD4680BD49
:1016A0005C07002080070020C4070020C00F01084D
:1016B0005007002080B582B000AF00237B60174B3D
:1016C0001B6B164A43F480031363144B1B6B03F428
:1016D00080037B607B6800233B60104B1B6B0F4AD1
:1016E00043F4001313630D4B1B6B03F400133B60B7
:1016F0003B68002205210E2003F0DCFB0E2003F0E6
:10170000F5FB002205213A2003F0D4FB3A2003F038
:10171000EDFB00BF0837BD4680BD00BF003802406A
:1017200080B500AF0021024805F06EF800BF80BD13
:10173000D808002080B483B000AF0346FB71FB796A
:10174000632B01D96423FB71FB79002B04D1074B78
:101750001B6800225A6303E0044B1B68FA795A6342
:1017600000BF0C37BD465DF8047B7047D8080020E9
:1017700080B582B000AF87ED000B4FF00002104B38
:10178000D7E90001FEF738FF02460B46104619461E
:1017900009A3D3E90023FFF759F802460B46104688
:1017A0001946FFF7D9F903461BB218460837BD465C
:1017B00080BD00BFAFF30080182D4454FB210940C9
:1017C0000080664080B582B000AF0346FB801F4BAF
:1017D0001B680121184607F05BFFFB88102B09D11D
:1017E0001B4B1B7843F00103DAB2194B1A701948EE
:1017F0000CF02AF9FB88202B09D1154B1B7843F0FC
:101800000203DAB2124B1A7013480CF01DF9FB8870
:10181000402B09D10E4B1B7843F00403DAB20C4B7A
:101820001A700E480CF010F9FB88802B09D1084B78
:101830001B7843F00803DAB2054B1A7008480CF025
:1018400003F900BF0837BD4680BD00BF1408002063
:10185000EC07002038100108581001087810010822
:101860009810010880B500AF294A0121012008F035
:10187000E5F80346274A1360274B00220121274839
:1018800008F032F80346264A1360264B0022002156
:10189000254808F029F80346244A1360204B1B68AA
:1018A0004FF47A71184608F09BF8214A002121482C
:1018B00007F05BFE0346204A1360204A00212048BF
:1018C00007F053FE03461F4A13601F4A00211F48BA
:1018D00007F04BFE03461E4A13601E4A00211E48B5
:1018E00007F043FE03461D4A13601D4A00211D48B0
:1018F00007F03BFE03461C4A13601C4A00211C48AB
:1019000007F033FE03461B4A136000BF80BD00BFD3
:10191000881401082008002068140108852C00089C
:101920001808002078140108F12C00081C08002079
:10193000901301087919000800080020B413010869
:10194000A919000804080020D813010889220008FA
:1019500008080020FC130108AD2700080C0800202F
:1019600020140108792B00081008002044140108F5
:10197000A12B00081408002080B584B000AF786067
:1019800007F0DEFDF860FB6803F5FA73FB60F868AA
:1019900007F068FF4FF40051014804F092F8F2E7B5
:1019A00000080240000000002DE9F04F9BB006AF98
:1019B00078609B4A07F1140392E8030083E8030070
:1019C000974A07F10C0392E8030083E80300002321
:1019D000FB640023A7F84A300023A7F8483000230F
:1019E000A7F846300023A7F844300023A7F8423078
:1019F00000237B8400233B840023FB830023A7F880
:101A000040300023FB870023BB8700237B77012323
:101A10003B77002387F83B3040F6B83007F007FFEC
:101A200002E0642007F003FF7E4B1B78002BF8D008
:101A3000012240F694614FF42070FFF793FBFFF70B
:101A400087FB794B012203926C4603F1080207CA17
:101A500084E807000CCB4FF4B0510120FFF77CFC69
:101A6000714B012203926C4603F1080207CA84E815
:101A700007000CCB4FF4B0510220FFF76DFC6B4B0D
:101A8000012203926C4603F1080207CA84E80700AA
:101A90000CCB41F601210120FFF75EFC634B0122D4
:101AA00003926C4603F1080207CA84E807000CCBD6
:101AB00041F601210220FFF74FFC00233B6329E0A0
:101AC0003B6BDBB20133D8B2012300930123002228
:101AD00042F21001FFF7D6FB3B6BDBB20133D8B209
:101AE000012300930323002246F26001FFF7CAFBA3
:101AF0000120FFF743FD3B6BDBB20133D8B2022379
:101B000000930123002242F20F01FFF7BBFB3B6B66
:101B100001333B633B6B012BD2DD07F011FD786392
:101B20007B6B0A337B63786B07F09CFE404B1B6832
:101B3000002B00F005810023FB620DE03D4AFB6AAB
:101B400013441B7859B207F11402FB6A13440A4686
:101B50001A70FB6A0133FB62FB6A072BEEDD97F913
:101B600014301D4697F915301E4697F916309C46DD
:101B700097F9173097F9182097F9191097F91A0063
:101B800097F91B40049403900291019200936346DD
:101B90003246294628480BF0D1FE254B00221A6018
:101BA000264B1A68254B5B689A4203D9234B1B6866
:101BB000FB6402E0214B5B68FB64204B1A681F4BFF
:101BC0005B68F96C1E480BF0B9FE1C4B1B68002BC0
:101BD00005D01A4B5B68002B01D00023FB64FB6C23
:101BE00040F2D272934200F09380FB6C40F2D272CA
:101BF000934200F28E80FB6C40F2E932934221D096
:101C0000FB6C40F2E932934200F28380FB6C40F2BD
:101C10008112934256D0FB6CB3F5C17F65D078E05A
:101C200014110108F107002000000020140000201A
:101C30005007002054070020B81001086407002056
:101C4000DC10010897F915301B021AB297F914300D
:101C50001BB213431AB2704B1A8097F917301B024C
:101C60001AB297F916301BB213431AB26B4B1A8093
:101C700097F919301B021AB297F918301BB21343A7
:101C80001AB2674B1A8097F91A307B77654B1B881D
:101C900001339AB2634B1A80624B1B88FF2B02D927
:101CA000604B01221A805C4BB3F9003019465B4B44
:101CB000B3F900301A465A4BB3F900305A480BF0CA
:101CC0003DFE26E097F90D301B021AB297F90C3051
:101CD0001BB21343A7F8423097F90F301B021AB218
:101CE00097F90E301BB213437B8497F90D301B021A
:101CF0001AB297F90C301BB213433B8497F90F309B
:101D00001B021AB297F90E301BB21343FB8300E09B
:101D100000BF464B00221A60444B00225A60002349
:101D2000FB640023BB6208E007F11402BB6A1344A2
:101D300000221A70BB6A0133BB62BB6A072BF3DD5A
:101D4000374BB3F90030002B7AD0334B00221A8086
:101D5000324B00221A80324BB3F900301846FEF79E
:101D6000E1FB2BA3D3E90023FEF770FD02460B46EF
:101D700010461946FEF7F0FE0346A7F84A30B7F9B9
:101D80004A30322B02DD3223A7F84A30B7F84A3006
:101D9000A7F84830B7F84830A7F84630B7F84630CB
:101DA000A7F84430B7F94A301846FEF7BBFB18A332
:101DB000D3E90023FEF720FC02460B4610461946E5
:101DC000FEF7CAFE0346BB870023A7F84030002376
:101DD000FB87174B02221A70164B1A78144B1B788C
:101DE0009A4200F0A981124B1A78124B1A70124BCA
:101DF0001B78002B00F0A081104B1B6840F6B83117
:101E0000184607F0EDFD0C4B00221A7094E100BF5C
:101E1000E01FCD8C3C2C4140F8070020FA07002041
:101E2000FC070020F2070020F010010864070020E2
:101E300028000020F0070020290000201C080020B6
:101E4000D94BB3F90020D94BB3F9003013431BB27F
:101E5000002B00F07181D44BB3F900301846FEF727
:101E600061FB04460D46D14BB3F900301846FEF72E
:101E700059FB80468946CC4BB3F900301846FEF733
:101E800051FB02460B4643EC112B49EC108B0DF035
:101E90000BFEB0EE407AF0EE607AB0EE470AF0EE5C
:101EA000670A0DF055FD53EC102B20462946FEF72E
:101EB000A3FB02460B4690469946BC4BB3F9003053
:101EC0001846FEF72FFB04460D46B84BB3F9003019
:101ED0001846FEF727FB82468B46B34BB3F900301A
:101EE0001846FEF71FFB02460B4643EC112B4BEC4A
:101EF00010AB0DF0D9FDB0EE407AF0EE607AB0EEA6
:101F0000470AF0EE670A0DF077FD53EC102B2046E0
:101F10002946FEF771FB02460B4640464946FEF74E
:101F2000B5F902460B46104619469BA3D3E9002398
:101F3000FEF762FB02460B4610461946FEF70CFE02
:101F40000346A7F84A30984BB3F900301946974B2F
:101F5000B3F900301A4696480BF0F0FCB7F94A3056
:101F6000322B02DD3223A7F84A30B7F84A305B4201
:101F70009BB2A7F84830B7F84A30A7F84630B7F810
:101F80004A305B429BB2A7F84430874BB3F900302C
:101F9000002B17DAB7F84A305B429BB2A7F84A30F9
:101FA000B7F848305B429BB2A7F84830B7F84630E4
:101FB0005B429BB2A7F84630B7F844305B429BB215
:101FC000A7F84430B7F942301846FEF7ABFA74A3CD
:101FD000D3E90023FEF710FB02460B4614461D46CC
:101FE000724BB3F900301846FEF79CFA80468946DA
:101FF0006D4BB3F900301846FEF794FA02460B46D3
:1020000043EC112B49EC108B0DF04EFDB0EE407AF5
:10201000F0EE607AB0EE470AF0EE670A0DF098FC39
:1020200053EC102B20462946FEF7E6FA02460B46F3
:1020300010461946FEF790FD0346A7F84030B7F961
:1020400042301846FEF76EFA55A3D3E90023FEF797
:10205000D3FA02460B4614461D46544BB3F90030E2
:102060001846FEF75FFA804689464F4BB3F90030B9
:102070001846FEF757FA02460B4643EC112B49EC83
:10208000108B0DF011FDB0EE407AF0EE607AB0EEFC
:10209000470AF0EE670A0DF0AFFC53EC102B204618
:1020A0002946FEF7A9FA02460B4610461946FEF7E6
:1020B00053FD0346FB870023BB873C4BB3F900303D
:1020C0001846FEF72FFA04460D46374BB3F9003099
:1020D0001846FEF727FA02460B4643EC112B45EC57
:1020E000104B0DF0E1FCB0EE407AF0EE607AB0EE0D
:1020F000470AF0EE670AFFF73BFB03461A462D4BF3
:102100001A802D4B01221A702C4B1A782A4B1B78FF
:102110009A4211D0284B1A78284B1A70284B1B78FA
:10212000002B09D0274B1B6840F6B831184607F042
:1021300057FC234B00221A701B4BB3F90030002BC5
:1021400009D11A4BB3F90030002B04D11E4BB3F95F
:102150000030002B03D01D4B1B88002B14D1164BD5
:1021600004221A70154B04221A700023A7F84A3073
:10217000B7F84A30A7F84830B7F84830A7F84630E3
:10218000B7F84630A7F84430114B1B78002B3FF4CA
:10219000C7AC1FE0AFF30080086919CCF142BC3F27
:1021A0001EBD8A19D41D2240F8070020FA0700201E
:1021B00000110108EE07002028000020F007002091
:1021C000290000201C080020FC070020F207002046
:1021D000F60700200823FB760723BB76B7F93C30CF
:1021E0001B121BB25BB27B76BB8F5BB23B76B7F93F
:1021F0003E301B121BB25BB2FB75FB8F5BB2BB7533
:10220000B7F940301B121BB25BB27B75B7F8403098
:102210005BB23B75B7F94A20B7F948304FF4D0515B
:102220000120FFF781F9B7F94620B7F944304FF4A0
:10223000D0510220FFF778F997F83B30013387F847
:102240003B3097F83B300A2B7FF66AAC002387F8C7
:102250003B3007F114010023082240F2D170FEF751
:10226000D5FF00237B6208E007F114027B6A134468
:1022700000221A707B6A01337B627B6A072BF3DDD5
:102280004EE400BF0000000080B588B002AF786067
:102290000023FB744FF47A7007F0C9FA00F00CFECB
:1022A000642007F0C4FA1021844803F0D9FB0346E8
:1022B000002B0BD00123009314230122002180481E
:1022C00000F0A0FF7F480BF0BFFB0AE00123009362
:1022D0001423002200217A4800F094FF7A480BF082
:1022E000B3FB2021754803F0BBFB0346002B0BD04A
:1022F00001230093142300220121714800F082FF82
:1023000072480BF0A1FB0AE0012300931423012281
:1023100001216B4800F076FF6D480BF095FB4021E2
:10232000664803F09DFB0346002B0BD0012300936E
:10233000142300220221624800F064FF65480BF07C
:1023400083FB0AE0012300931423012202215C484D
:1023500000F058FF60480BF077FB8021574803F0EE
:102360007FFB0346002B0BD0012300931423012293
:102370000321534800F046FF58480BF065FB0AE084
:10238000012300931423002203214D4800F03AFF5B
:1023900053480BF059FB4FF47A7007F048FA0023CA
:1023A000FB6009E04FF4FA7007F041FA444800F08E
:1023B00001FFFB680133FB60FB68132BF2DD4FF478
:1023C000FA7007F034FA00F06DFD464B01221A70E6
:1023D00007F0B6F878617B6932337B61786907F082
:1023E00041FA414B1B78012B40F0FC803F4BB3F985
:1023F0000030B42B05D03D4BB3F9003013F1B40FCE
:1024000002D13A4B00221A80394BB3F90030002B2D
:102410000AD1384BB3F90030002B05DD334B5A227B
:102420001A800123FB740EE0314BB3F90030002B0E
:1024300009D1304BB3F90030002B04DA2B4B5A2270
:102440001A800023FB742A4BB3F90030002B07DD00
:10245000284BB3F90030002B02DD0123FB7460E050
:10246000234BB3F90030002B11DA224BB3F90030C3
:10247000002B0CDD1D4BB3F900309BB2C3F1B4034C
:102480009BB21AB2194B1A800023FB7449E0184B17
:10249000B3F90030002B2FDA164BB3F90030002BC4
:1024A0002ADA124BB3F900309BB2B4339BB21AB2A2
:1024B0000E4B1A800123FB7433E000BF0000024082
:1024C0002C0000201C110108341101084C110108D6
:1024D000641101087C11010894110108AC11010874
:1024E000C4110108F107002028000020EE07002099
:1024F000F8070020FA070020A34BB3F90030002BA7
:102500000FDDA24BB3F90030002B0ADAA04BB3F970
:1025100000309BB25B429BB21AB29D4B1A800023E3
:10252000FB749B4BB3F90030002B58DB984BB3F98D
:1025300000305A2B53DC964BB3F900309BB21A464D
:10254000920013441A4691001A460B4613449B000E
:102550009BB2FA7C0021009100218E4800F052FECF
:102560008B4BB3F900309BB21A46920013441A46C3
:1025700091001A460B4613449B009BB2FA7C002143
:1025800000910121834800F03DFE814BB3F90030FA
:102590009BB21A46920013441A4691001A460B4603
:1025A00013449B009BB2FA7C0021009102217948E0
:1025B00000F028FE764BB3F900309BB21A46920029
:1025C00013441A4691001A460B4613449B009BB2D3
:1025D000FA7C0021009103216E4800F013FE6E4842
:1025E0000BF032FA6D4B1B78022B5ED19FED640B22
:1025F000FFF7BEF803461A46654B1A80644BB3F9E1
:1026000000309BB21A46920013441A4691001A46B3
:102610000B4613449B009BB2002200920122002132
:102620005C4800F0EFFD5A4BB3F900309BB21A46FC
:10263000920013441A4691001A460B4613449B001D
:102640009BB20022009200220121524800F0DAFDE4
:102650004F4BB3F900309BB21A46920013441A460E
:1026600091001A460B4613449B009BB20022009235
:1026700000220221474800F0C5FD454BB3F9003068
:102680009BB21A46920013441A4691001A460B4612
:1026900013449B009BB200220092012203213D487B
:1026A00000F0B0FD3E480BF0CFF93C4B1B78042BFB
:1026B00061D19FED330BFFF75BF803461A46344BAD
:1026C0001A80334BB3F900309BB21A469200134480
:1026D0001A4691001A460B4613449B009BB20022F7
:1026E0000092002200212B4800F08CFD284BB3F90A
:1026F00000309BB21A46920013441A4691001A46C3
:102700000B4613449B009BB2002200920122012140
:10271000204800F077FD1E4BB3F900309BB21A46FB
:10272000920013441A4691001A460B4613449B002C
:102730009BB20022009201220221164800F062FDA5
:10274000134BB3F900309BB21A46920013441A4659
:1027500091001A460B4613449B009BB20022009244
:10276000002203210B4800F04DFD0E4B00221A7091
:102770000D480BF069F9074800F01CFD2BE600BF7F
:1027800031CDEFCC26A4E73FF8070020FA07002060
:10279000EE0700202C000020DC110108280000209A
:1027A000E4110108F6070020EC11010880B584B09F
:1027B00000AF786006F0C4FEF860FB6803F5FA73BA
:1027C000FB60F86807F04EF8EA4B1B680133E94AF2
:1027D0001360E84B1B68013B072B00F2C28101A28A
:1027E00052F823F00528000867280008C9280008C7
:1027F0002B2900088D290008072A0008812A0008D3
:10280000E32A00080123002200210020FEF762FBDA
:102810000023012200210120FEF75CFB002300229F
:1028200001210220FEF756FB012300220021032094
:10283000FEF750FB0023012200210420FEF74AFB93
:102840000023002201210520FEF744FB0123002282
:1028500000210620FEF73EFB002301220021072075
:10286000FEF738FB7DE10123002200210720FEF75F
:1028700031FB0023012200210020FEF72BFB002367
:10288000002201210120FEF725FB01230022002167
:102890000220FEF71FFB0023012200210320FEF788
:1028A00019FB0023002201210420FEF713FB012362
:1028B000002200210520FEF70DFB0023012200214C
:1028C0000620FEF707FB4CE1012300220021062031
:1028D000FEF700FB0023012200210720FEF7FAFA91
:1028E0000023002201210020FEF7F4FA0123002238
:1028F00000210120FEF7EEFA002301220021022030
:10290000FEF7E8FA0023002201210320FEF7E2FA95
:102910000123002200210420FEF7DCFA002301221B
:1029200000210520FEF7D6FA1BE101230022002139
:102930000520FEF7CFFA0023012200210620FEF732
:10294000C9FA0023002201210720FEF7C3FA012360
:10295000002200210020FEF7BDFA00230122002101
:102960000120FEF7B7FA0023002201210220FEF722
:10297000B1FA0123002200210320FEF7ABFA002365
:10298000012200210420FEF7A5FAEAE0012300223B
:1029900000210420FEF79EFA0023012200210520D9
:1029A000FEF798FA0023002201210620FEF792FA92
:1029B0000123002200210720FEF78CFA00230122C8
:1029C00000210020FEF786FA0023002201210120C9
:1029D000FEF780FA0123002200210220FEF77AFA96
:1029E0000023012200210320FEF774FA01230022B4
:1029F00000210820FEF76EFA0023012200210920A1
:102A0000FEF768FAADE00123002200210320FEF763
:102A100061FA0023012200210420FEF75BFA002363
:102A2000002201210520FEF755FA01230022002192
:102A30000620FEF74FFA0023012200210720FEF7AF
:102A400049FA0023002201210020FEF743FA012366
:102A5000002200210120FEF73DFA0023012200217F
:102A60000220FEF737FA0123012200210820FEF799
:102A700031FA0023012201210920FEF72BFA70E030
:102A80000123002200210220FEF724FA0023012264
:102A900000210320FEF71EFA00230022012104205A
:102AA000FEF718FA0123002200210520FEF712FA92
:102AB0000023012200210620FEF70CFA0023002249
:102AC00001210720FEF706FA012300220021002041
:102AD000FEF700FA0023012200210120FEF7FAF997
:102AE0003FE00123002200210120FEF7F3F900233B
:102AF000012200210220FEF7EDF90023002201212E
:102B00000320FEF7E7F90123002200210420FEF74D
:102B1000E1F90023012200210520FEF7DBF9002363
:102B2000002201210620FEF7D5F901230022002111
:102B30000720FEF7CFF90023012200210020FEF735
:102B4000C9F90123012201210820FEF7C3F901235D
:102B5000012201210920FEF7BDF9064B01221A606E
:102B600000BF002200210020FEF70CFA1820FEF71B
:102B70009DF922E62408002080B584B000AF78607B
:102B800006F0DEFCF860FEF7CBFDFB6803F5FA7398
:102B9000FB60F86806F066FE1E20FEF7CBFDF4E74A
:102BA00080B584B002AF78600A2006F040FE2E4B5C
:102BB0001B7819462D480AF0C1FE4FF0FF32002164
:102BC000012006F0B3FD284B1B7803F00103002B16
:102BD0000DD0254B00221A7025480AF035FF00233E
:102BE0000093002301220021224800F00BFB1E4B22
:102BF0001B7803F00203002B0DD01B4B00221A7030
:102C00001D480AF021FF0023009300230122012127
:102C1000184800F0F7FA144B1B7803F00403002B5C
:102C20000DD0114B00221A7014480AF00DFF00233A
:102C300000930023012202210E4800F0E3FA0A4B20
:102C40001B7803F00803002BB7D0074B00221A7043
:102C50000B480AF0F9FE0023009300230122032110
:102C6000044800F0CFFAA8E7EC070020F4110108AF
:102C7000141201082C00002024120108341201084B
:102C80004412010880B582B000AF7860114B1B88F8
:102C9000194611480AF052FE104B1A880D4B1B883A
:102CA0009A4204D00B4B1A880C4B1A800DE00C4B47
:102CB00004221A700B4B00221A800A4BB3F9002031
:102CC000094B1A8009480AF0BFFE00BF0837BD460D
:102CD00080BD00BFF207002054120108F407002055
:102CE00028000020FA070020F807002064120108DD
:102CF00080B483B000AF7860054B01221A70054B99
:102D000001221A7000BF0C37BD465DF8047B704786
:102D1000F60700202900002080B58AB000AF07F137
:102D2000140300221A605A609A60DA601A61002364
:102D30003B61574B1B6B564A43F004031363544BE0
:102D40001B6B03F004033B613B690023FB60504BAA
:102D50001B6B4F4A43F0800313634D4B1B6B03F017
:102D60008003FB60FB680023BB60494B1B6B484A38
:102D700043F001031363464B1B6B03F00103BB607D
:102D8000BB6800237B60424B1B6B414A43F002034C
:102D900013633F4B1B6B03F002037B607B680023D4
:102DA0003B603B4B1B6B3A4A43F008031363384BC1
:102DB0001B6B03F008033B603B6800224FF63E416B
:102DC000344802F065FE002244F21001324802F05D
:102DD0005FFE00220421314802F05AFE4FF63E43C6
:102DE0007B610123BB610023FB6100233B6207F190
:102DF00014031946274802F097FC01237B61032343
:102E0000BB610023FB6107F114031946214802F05E
:102E10008BFCF0237B614FF44413BB610023FB6107
:102E200007F1140319461E4802F07EFC44F2100319
:102E30007B610123BB610023FB6100233B6207F13F
:102E400014031946144802F06FFC04237B6101232C
:102E5000BB610023FB6100233B6207F114031946A9
:102E60000E4802F061FC002205210A2002F022F83F
:102E70000A2002F03BF800220521172002F01AF880
:102E8000172002F033F800BF2837BD4680BD00BFD1
:102E9000003802400008024000040240000C0240DA
:102EA0000000024080B500AF0A2002F02DF8172084
:102EB00002F02AF800BF80BD80B500AF00220521D6
:102EC0000A2001F0F7FF0A2002F010F80022052185
:102ED000172001F0EFFF172002F008F800BF80BDB7
:102EE00080B500AF184B194A1A60174B184A5A6040
:102EF000154B0022DA60144B4FF480421A61124BDA
:102F000000225A61104B00229A610F4B0022DA61B5
:102F10000D4B00221A620C4B00225A620A4B02220D
:102F20009A62094803F08AFA0346002B01D000F0A8
:102F300011F9054803F038FB0346002B01D000F0DF
:102F400009F900BF80BD00BF2808002000540040E0
:102F5000A086010080B58AB000AF786007F1140345
:102F600000221A605A609A60DA601A617B681B68F6
:102F7000194A93422BD100233B61184B1B6B174A14
:102F800043F002031363154B1B6B03F002033B6119
:102F90003B69E0237B611223BB610023FB610323B8
:102FA0003B6204237B6207F1140319460C4802F0CC
:102FB000BBFB0023FB60094B1B6C084A43F4001366
:102FC0001364064B1B6C03F40013FB60FB6800BF2B
:102FD0002837BD4680BD00BF005400400038024085
:102FE0000004024080B584B000AFF860B9607A6038
:102FF0007B689AB26423B968034805F092F87B684D
:1030000018461037BD4680BD100A002080B500AFBD
:1030100000F080FF4FF4FA6000F0BEFF00F01EF8F1
:10302000FFF77AFEFFF73EFFFDF7FAFFFEF786F89F
:1030300000F002FBFFF754FFFEF73CFB00F056FEEA
:1030400000F02AFE00F026FC00F0A8FB06F02EFAA5
:10305000FEF708FC06F04EFAFEE7000080B594B0DB
:1030600000AF07F1200330220021184609F05FFF6E
:1030700007F10C0300221A605A609A60DA601A6144
:103080000023BB60284B1B6C274A43F0805313641A
:10309000254B1B6C03F08053BB60BB6800237B6037
:1030A000224B1B68214A43F4804313601F4B1B686B
:1030B00003F480437B607B6801233B624FF48033E1
:1030C0007B620223BB634FF48003FB6306233B64F4
:1030D000A8237B640223BB640423FB6407F1200361
:1030E000184602F021FD0346002B01D000F032F813
:1030F0000F23FB6002233B6100237B614FF4A0534D
:10310000BB614FF48053FB6107F10C0305211846A6
:1031100002F082FF0346002B01D000F01BF800BF35
:103120005037BD4680BD00BF0038024000700040EF
:1031300080B582B000AF78607B681B68044A934218
:1031400001D100F009FF00BF0837BD4680BD00BFB8
:103150000010004080B400AF72B600BFFEE7000070
:1031600080B582B000AF78607B681B680B4A9342E1
:1031700009D10C220A490B4805F065F803461946A7
:1031800009480AF0DBFB094B01221A6008480AF0E3
:103190005BFC00BF0837BD4680BD00BF0048004053
:1031A00080080020540A0020781201087C080020C2
:1031B0008C12010880B582B000AF786001224FF414
:1031C00080410E4802F064FC062006F030FB3022FD
:1031D00079680B4805F068F80346002B01D0FFF72B
:1031E000B9FF062006F023FB00224FF4804103487C
:1031F00002F04EFC00BF0837BD4680BD000402400F
:10320000540A002090B486B000AF7860084611469A
:103210001A460346FB700B46BB7013463B80FF23E8
:103220003B72FE237B72FB78BB720623FB7200238A
:103230003B7397F820300233DBB27B73BB78BB73F0
:103240003B881B0A9BB2DBB2FB733B88DBB23B744F
:1032500097F82030012B02D103237B7401E01E2359
:103260007B740023BB740023FB7402237B610DE09D
:1032700007F108027B6913441A78144B1B78134436
:10328000DAB2124B1A707B6901337B617B69092BBF
:10329000EEDD0E4B1B78DB43DBB23B730B4B0022A6
:1032A0001A70FA7813465B0013449B001A467B6839
:1032B00013441C4607F1080307CB20606160A2603D
:1032C00000BF1837BD4690BC704700BF780800208B
:1032D00080B582B000AF00237B60124B5B6C114A5B
:1032E00043F4804353640F4B5B6C03F480437B6077
:1032F0007B6800233B600B4B1B6C0A4A43F08053F6
:103300001364084B1B6C03F080533B603B68002246
:103310000F216FF0010001F0CDFD00BF0837BD4661
:1033200080BD00BF0038024080B58CB000AF78602F
:103330000023FB620023BB6200227968362001F083
:10334000B9FD362001F0D2FD0023FB601F4B1B6C42
:103350001E4A43F0100313641C4B1B6C03F0100354
:10336000FB60FB6807F1100207F1140311461846D1
:1033700003F032F803F008F803465B00FB62FB6AD7
:10338000134AA2FB03239B0C013BBB62114B124A65
:103390001A60104B40F2E732DA600E4ABB6A5360A3
:1033A0000C4B00221A610B4B00229A60094803F073
:1033B0001BF90346002B04D1064803F065F90346C8
:1033C00000E0012318463037BD4680BD003802407A
:1033D00083DE1B438C0800200010004080B400AF47
:1033E000FEE780B400AFFEE780B400AFFEE780B434
:1033F00000AFFEE780B400AFFEE780B400AF00BFCF
:10340000BD465DF8047B704780B500AF102002F028
:1034100073FB00BF80BD000080B500AF024801F023
:1034200019FF00BF80BD00BF980A002080B500AF23
:10343000024801F03DFA00BF80BD00BFC407002074
:1034400080B500AF024801F033FA00BF80BD00BF75
:10345000C407002080B500AF202002F04DFB4020C3
:1034600002F04AFB802002F047FB00BF80BD000055
:1034700080B500AF024804F095FF00BF80BD00BFDB
:10348000100A002080B500AF024804F08BFF00BF97
:1034900080BD00BF540A002080B500AF024803F091
:1034A0009CFC00BF80BD00BF8C08002080B500AF31
:1034B000024801F0CFFE00BF80BD00BFB009002070
:1034C00080B400AF01231846BD465DF8047B704709
:1034D00080B582B000AF7860396009F0F7FB034631
:1034E00016221A604FF0FF3318460837BD4680BDDC
:1034F00080B582B000AF78604FF0FF317868FFF799
:10350000E7FFFEE780B586B000AFF860B9607A608B
:1035100000237B610AE0AFF300800146BB685A1CC0
:10352000BA60CAB21A707B6901337B617A697B68C1
:103530009A42F0DB7B6818461837BD4680BD80B4E0
:1035400083B000AF78604FF0FF3318460C37BD46AC
:103550005DF8047B704780B483B000AF7860396059
:103560003B684FF400525A60002318460C37BD46A2
:103570005DF8047B704780B483B000AF78600123AE
:1035800018460C37BD465DF8047B704780B485B0A3
:1035900000AFF860B9607A60002318461437BD4662
:1035A0005DF8047B7047000080B586B000AF78609E
:1035B000144A154BD31A7B617B693B61134B1B6823
:1035C000002B02D1114B124A1A60104B1A687B680B
:1035D00013443A699A4207D209F078FB03460C2259
:1035E0001A604FF0FF3309E0084B1B68FB60074B84
:1035F0001A687B681344054A1360FB68184618373D
:10360000BD4680BD0000022000040000D408002058
:103610002055002080B400AF064BD3F88830054A0F
:1036200043F47003C2F8883000BFBD465DF8047BE8
:10363000704700BF00ED00E080B596B000AF07F125
:10364000500300221A605A6007F1340300221A6006
:103650005A609A60DA601A615A619A6107F124032C
:1036600000221A605A609A60DA603B1D2022002115
:10367000184609F05CFC474B474A1A60454B40F23C
:103680008F625A60434B00229A60424B6322DA6099
:10369000404B00221A613F4B00225A613D4B0022F1
:1036A0009A613C4803F060F80346002B01D0FFF715
:1036B00051FD384803F038FB0346002B01D0FFF7DB
:1036C00049FD00233B6500237B6507F15003194644
:1036D000304804F0F7FB0346002B01D0FFF73AFD1A
:1036E00060237B630023BB630023FB6300233B64F5
:1036F00000237B640023BB640023FB6407F13403D5
:1037000000221946234803F00DFD0346002B01D08B
:10371000FFF720FD00237B620123BB620023FB62D5
:1037200000233B6307F1240304221946194803F0E0
:103730005CFC0346002B01D0FFF70CFD07F12403CE
:1037400008221946134803F050FC0346002B01D011
:10375000FFF700FD00237B600023BB600023FB60BC
:1037600000233B6100237B614FF40053BB610023C6
:103770003B623B1D1946074804F020FC0346002B22
:1037800001D0FFF7E7FC034800F022FA00BF5837EA
:10379000BD4680BDD80800200000014080B58AB039
:1037A00000AF07F1180300221A605A609A60DA60CD
:1037B00007F1100300221A605A603B4600221A608B
:1037C0005A609A60DA60314B314A1A602F4B0022FE
:1037D0005A602E4B00229A602C4B4FF6FF72DA6033
:1037E0002A4B00221A61294B00229A61274802F0D5
:1037F000FBFE0346002B01D0FFF7ACFC4FF48053D7
:10380000BB6107F118031946204803F04DFD03463C
:10381000002B01D0FFF79EFC1C4803F085FA0346FD
:10382000002B01D0FFF796FC00233B6100237B6156
:1038300007F110031946154804F044FB0346002B1A
:1038400001D0FFF787FC00233B6001237B6000234E
:10385000BB600023FB603B46082219460B4803F07F
:10386000C4FB0346002B01D0FFF774FC3B460C223F
:103870001946064803F0B9FB0346002B01D0FFF7B9
:1038800069FC00BF2837BD4680BD00BF200900206D
:103890000004004080B596B000AF07F14803002255
:1038A0001A605A609A60DA6007F1400300221A60D9
:1038B0005A6007F1240300221A605A609A60DA60A5
:1038C0001A615A619A613B1D20220021184609F0B5
:1038D0002EFB504B504A1A604E4B01225A604D4B02
:1038E00000229A604B4B6822DA604A4B00221A6130
:1038F000484B00225A61474B00229A61454802F02A
:1039000073FE0346002B01D0FFF724FC4FF48053D5
:10391000BB6407F1480319463E4803F0C5FC034663
:10392000002B01D0FFF716FC3A4802F01DFF0346BA
:10393000002B01D0FFF70EFC00233B6400237B64C7
:1039400007F140031946334804F0BCFA0346002B44
:1039500001D0FFF7FFFB60237B620023BB620023E3
:10396000FB6200233B6300237B630023BB630023D4
:10397000FB6307F1240300221946264803F0D2FB1B
:103980000346002B01D0FFF7E5FB07F124030422D7
:103990001946204803F0C6FB0346002B01D0FFF771
:1039A000D9FB07F12403082219461A4803F0BAFB91
:1039B0000346002B01D0FFF7CDFB07F124030C22B7
:1039C0001946144803F0AEFB0346002B01D0FFF765
:1039D000C1FB00237B600023BB600023FB6000234E
:1039E0003B6100237B614FF40053BB6100233B62CA
:1039F0003B1D1946074804F0E1FA0346002B01D0AD
:103A0000FFF7A8FB034800F0E3F800BF5837BD46B6
:103A100080BD00BF680900200004014080B58AB065
:103A200000AF786007F1140300221A605A609A60B0
:103A3000DA601A617B681B68194A93422CD1002313
:103A40003B61184B5B6C174A43F001035364154B01
:103A50005B6C03F001033B613B690023FB60114B8E
:103A60001B6B104A43F0010313630E4B1B6B03F0F7
:103A70000103FB60FB684FF4C0637B610223BB6101
:103A80000023FB6100233B6201237B6207F11403E7
:103A90001946054801F048FE00BF2837BD4680BDE5
:103AA00000000140003802400000024080B58AB0AA
:103AB00000AF786007F1140300221A605A609A6020
:103AC000DA601A617B681B683B4A93422CD1002361
:103AD0003B613A4B1B6C394A43F002031364374B8A
:103AE0001B6C03F002033B613B690023FB60334B1B
:103AF0001B6B324A43F002031363304B1B6B03F022
:103B00000203FB60FB6803237B610223BB6100238C
:103B1000FB6100233B6202237B6207F11403194619
:103B2000274801F001FE42E07B681B68254A93426A
:103B30003DD10023BB60214B5B6C204A43F0020364
:103B400053641E4B5B6C03F00203BB60BB681E4BEF
:103B50001E4A1A601C4B4FF060625A601A4B40229A
:103B60009A60194B0022DA60174B4FF480621A6199
:103B7000154B4FF400625A61134B4FF400529A6197
:103B8000114B0022DA61104B00221A620E4B002208
:103B90005A620D4801F0C6F90346002B01D0FFF729
:103BA000D9FA7B68084A5A62074A7B68936300BF68
:103BB0002837BD4680BD00BF0004004000380240E9
:103BC0000004024000040140B009002040640240AB
:103BD00080B58AB000AF786007F1140300221A6044
:103BE0005A609A60DA601A617B681B68254A9342C2
:103BF0001FD100233B61244B1B6B234A43F001037D
:103C00001363214B1B6B03F001033B613B694FF4D2
:103C100080737B610223BB610023FB6100233B6255
:103C200001237B6207F114031946184801F07CFD5B
:103C300023E07B681B68164A93421ED10023FB6079
:103C4000114B1B6B104A43F0040313630E4B1B6BA9
:103C500003F00403FB60FB684FF470737B61022385
:103C6000BB610023FB6100233B6203237B6207F1FE
:103C700014031946074801F057FD00BF2837BD4619
:103C800080BD00BF0000014000380240000002403B
:103C9000000401400008024080B500AF114B124AF9
:103CA0001A60104B4FF4E1325A600E4B00229A60BA
:103CB0000C4B0022DA600B4B00221A61094B0C22DC
:103CC0005A61084B00229A61064B0022DA610548CE
:103CD00004F0DAF90346002B01D0FFF73BFA00BFEE
:103CE00080BD00BF100A00200044004080B500AF36
:103CF000114B124A1A60104B4FF4E1325A600E4BCE
:103D000000229A600C4B0022DA600B4B00221A61F1
:103D1000094B0C225A61084B00229A61064B002283
:103D2000DA61054804F0B0F90346002B01D0FFF733
:103D300011FA00BF80BD00BF540A002000480040B7
:103D400080B58CB000AF786007F11C0300221A60C8
:103D50005A609A60DA601A617B681B68514A934224
:103D600034D10023BB61504B1B6C4F4A43F40033EA
:103D700013644D4B1B6C03F40033BB61BB69002320
:103D80007B61494B1B6B484A43F001031363464B6D
:103D90001B6B03F001037B617B690C23FB61022336
:103DA0003B6200237B620323BB620723FB6207F1B4
:103DB0001C0319463D4801F0B7FC002205212620CE
:103DC00001F078F8262001F091F867E07B681B6825
:103DD000374A934262D100233B61334B1B6C324A1A
:103DE00043F480231364304B1B6C03F480233B614A
:103DF0003B690023FB602C4B1B6B2B4A43F00203F7
:103E00001363294B1B6B03F00203FB60FB684FF449
:103E10004063FB6102233B6200237B620323BB629E
:103E20000723FB6207F11C031946224801F07CFCC2
:103E3000214B224A1A60204B4FF000625A601E4B01
:103E400040229A601C4B0022DA601B4B4FF48062C8
:103E50001A61194B00225A61174B00229A61164BC6
:103E60000022DA61144B00221A62134B00225A62BC
:103E7000114801F057F80346002B01D0FFF76AF90B
:103E80007B680D4A5A630C4A7B68936300220521C4
:103E9000272001F00FF8272001F028F800BF303765
:103EA000BD4680BD00440040003802400000024092
:103EB0000048004000040240980A00205860024078
:103EC000DFF834D00D480E490E4A002302E0D458E2
:103ED000C4500433C4188C42F9D30B4A0B4C002352
:103EE00001E013600432A242FBD3FFF793FB08F01A
:103EF000E9FFFFF78BF87047000002200000002068
:103F00003C020020F01A01083C0200201C55002051
:103F1000FEE7000080B500AF0E4B1B680D4A43F46E
:103F2000007313600B4B1B680A4A43F480631360F1
:103F3000084B1B68074A43F480731360032000F0AA
:103F4000AEFF0F20FFF7F0F9FFF7C2F90023184684
:103F500080BD00BF003C024080B400AF064B1B7820
:103F60001A46064B1B681344044A136000BFBD4643
:103F70005DF8047B704700BF64000020F80A002051
:103F800080B400AF034B1B681846BD465DF8047B48
:103F9000704700BFF80A002080B584B000AF786099
:103FA000FFF7EEFFB8607B68FB60FB68B3F1FF3F93
:103FB00005D00A4B1B781A46FB681344FB6000BF10
:103FC000FFF7DEFF0246BB68D31AFA689A42F7D8B9
:103FD00000BF00BF1037BD4680BD00BF6400002099
:103FE00080B584B000AF78607B68002B01D10123DD
:103FF000EDE07B6893F82030DBB2002B02D17868CB
:10400000FDF744F87B681B681A687B681B6842F000
:1040100001021A60FFF7B4FFF86012E0FFF7B0FF8B
:104020000246FB68D31A0A2B0BD97B685B6A43F400
:1040300000327B685A627B68052283F820200123C6
:10404000C5E07B681B685B6803F00103002BE5D0CB
:104050007B681B681A687B681B6822F002021A6082
:10406000FFF78EFFF86012E0FFF78AFF0246FB6859
:10407000D31A0A2B0BD97B685B6A43F400327B6846
:104080005A627B68052283F8202001239FE07B6829
:104090001B685B6803F00203002BE5D17B681B7E85
:1040A000012B08D17B681B681A687B681B6842F08B
:1040B00080021A6007E07B681B681A687B681B68CF
:1040C00022F080021A607B685B7E012B08D17B683E
:1040D0001B681A687B681B6842F040021A6007E0A0
:1040E0007B681B681A687B681B6822F040021A60B4
:1040F0007B689B7E012B08D17B681B681A687B68F4
:104100001B6842F020021A6007E07B681B681A688F
:104110007B681B6822F020021A607B68DB7E012B23
:1041200008D17B681B681A687B681B6822F0100244
:104130001A6007E07B681B681A687B681B6842F09E
:1041400010021A607B681B7F012B08D17B681B68FB
:104150001A687B681B6842F008021A6007E07B68F7
:104160001B681A687B681B6822F008021A607B686B
:104170005B7F012B08D17B681B681A687B681B6812
:1041800042F004021A6007E07B681B681A687B68CB
:104190001B6822F004021A607B689A687B68DB68FF
:1041A0001A437B681B691A437B685B6942EA030117
:1041B0007B685B685A1E7B681B680A43DA617B6810
:1041C00000225A627B68012283F8202000231846CF
:1041D0001037BD4680BD000080B487B000AF786066
:1041E00039607B681B687B617B6893F82030FB74C7
:1041F000FB7C012B03D0FB7C022B40F0BE80654B87
:104200007B617B69D3F8003243F001027B69C3F81C
:1042100000227B69D3F8003223F47C527B69C3F817
:1042200000227B69D3F800223B685B6A1B021A43B9
:104230007B69C3F800223B685B6903F01F0301221E
:1042400002FA03F3FB607B69D3F81C22FB68DB43B3
:104250001A407B69C3F81C223B68DB69002B23D121
:104260007B69D3F80C22FB68DB431A407B69C3F8F7
:104270000C223B68DB6819043B685B689BB23A68B8
:10428000526919437B69483243F832103B689B6896
:1042900019043B681B689AB23B685B690A437969F9
:1042A0004833DB000B445A603B68DB69012B22D1A9
:1042B0007B69D3F80C22FB681A437B69C3F80C2294
:1042C0003B681B6819043B685B689BB23A6852699B
:1042D00019437B69483243F832103B689B681904E4
:1042E0003B68DB689AB23B685B690A43796948338B
:1042F000DB000B445A603B689B69002B09D17B694A
:10430000D3F80422FB68DB431A407B69C3F804221C
:1043100007E07B69D3F80422FB681A437B69C3F882
:1043200004223B681B69002B09D17B69D3F8142256
:10433000FB68DB431A407B69C3F8142207E07B6902
:10434000D3F81422FB681A437B69C3F814223B6834
:104350001B6A012B07D17B69D3F81C22FB681A4327
:104360007B69C3F81C227B69D3F8003223F0010279
:104370007B69C3F80022002306E07B685B6A43F494
:1043800080227B685A62012318461C37BD465DF8BF
:10439000047B70470064004080B584B000AF786053
:1043A0007B6893F82030DBB2012B2ED17B68022290
:1043B00083F820207B681B681A687B681B6822F0E2
:1043C00001021A60FFF7DCFDF86012E0FFF7D8FD8C
:1043D0000246FB68D31A0A2B0BD97B685B6A43F44D
:1043E00000327B685A627B68052283F82020012313
:1043F00012E07B681B685B6803F00103002BE5D1CA
:104400007B6800225A62002306E07B685B6A43F403
:1044100000227B685A62012318461037BD4680BDD2
:1044200080B489B000AFF860B9607A603B60FB6827
:1044300093F82030FB77FB681B689B68BB61FB7FB0
:10444000012B03D0FB7F022B40F0B880BB6903F047
:104450008063002B0AD1BB6903F00063002B05D1F8
:10446000BB6903F08053002B00F0A080BB691B0EDA
:1044700003F003037B617B69022B07D9FB685B6A4E
:1044800043F40002FB685A6201239EE001227B692B
:104490009A403B681A60BB689B68002B0DD1BB68D3
:1044A0001B685A05BB68DB68F96809681A437B69B1
:1044B00018331B010B441A600FE0BB685B68DA001D
:1044C000BB689B681A43BB68DB68F96809681A43D4
:1044D0007B6918331B010B441A60FB681968BB68C1
:1044E0001A697B6918331B010B4404331A60BB68DB
:1044F0001B7D012B11D1FB681A687B6918331B01E6
:10450000134404331B68FA68116843F480727B69B2
:1045100018331B010B4404331A607B6807331B7884
:104520001A067B6806331B781B041A437B68053325
:104530001B781B0213437A68043212781046FA681B
:10454000116843EA00027B691B010B4403F5C67343
:104550001A607B6803331B781A067B6802331B786A
:104560001B041A437B6801331B781B0213437A68D0
:1045700012781046FA68116843EA00027B691B0151
:104580000B4403F5C4731A60FB681A687B6918331F
:104590001B0113441B68FA68116843F001027B6930
:1045A00018331B010B441A6000230EE0FB685B6AA2
:1045B00043F40012FB685A62012306E0FB685B6A61
:1045C00043F48022FB685A62012318462437BD4613
:1045D0005DF8047B704780B485B000AF786000233D
:1045E000FB607B6893F82030FB72FB7A012B02D0D2
:1045F000FB7A022B1DD17B681B689B6803F08063EC
:10460000002B02D0FB680133FB607B681B689B6852
:1046100003F00063002B02D0FB680133FB607B6872
:104620001B689B6803F08053002B02D0FB680133AA
:10463000FB60FB6818461437BD465DF8047B704785
:1046400080B487B000AFF860B9607A603B60FB6807
:1046500093F82030FB75FB7D012B03D0FB7D022BF3
:1046600040F0F380BB68002B0ED1FB681B68DB6851
:1046700003F00303002B16D1FB685B6A43F40012BE
:10468000FB685A620123E7E0FB681B681B6903F0C3
:104690000303002B07D1FB685B6A43F40012FB683D
:1046A0005A620123D8E0FB681A68BB681B331B0100
:1046B00013441B6803F004027B689A607B689B6864
:1046C000002B0CD1FB681A68BB681B331B01134419
:1046D0001B685B0DC3F30A027B681A600BE0FB6882
:1046E0001A68BB681B331B0113441B68DB0823F0EB
:1046F00060427B685A60FB681A68BB681B331B0109
:1047000013441B6803F002027B68DA60FB681A68D6
:10471000BB681B331B01134404331B6803F00F02F7
:104720007B681A61FB681A68BB681B331B01134462
:1047300004331B681B0ADAB27B689A61FB681A684B
:10474000BB681B331B01134404331B681B0C9AB258
:104750007B685A61FB681A68BB681B01134403F548
:10476000DC731B68DAB23B681A70FB681A68BB68B6
:104770001B01134403F5DC731B681A0A3B68013301
:10478000D2B21A70FB681A68BB681B01134403F5A8
:10479000DC731B681A0C3B680233D2B21A70FB68D8
:1047A0001A68BB681B01134403F5DC731B681A0EFF
:1047B0003B680333D2B21A70FB681A68BB681B01EE
:1047C000134403F5DE731A683B680433D2B21A70DF
:1047D000FB681A68BB681B01134403F5DE731B6892
:1047E0001A0A3B680533D2B21A70FB681A68BB68B4
:1047F0001B01134403F5DE731B681A0C3B68063378
:10480000D2B21A70FB681A68BB681B01134403F527
:10481000DE731B681A0E3B680733D2B21A70BB688E
:10482000002B08D1FB681B68DA68FB681B6842F044
:104830002002DA6007E0FB681B681A69FB681B68E6
:1048400042F020021A61002306E0FB685B6A43F431
:104850008022FB685A62012318461C37BD465DF86A
:10486000047B704780B485B000AF786039607B68A6
:1048700093F82030FB73FB7B012B02D0FB7B022BD8
:1048800009D17B681B6859697B681B683A680A43D1
:104890005A61002306E07B685B6A43F480227B68F0
:1048A0005A62012318461437BD465DF8047B7047F1
:1048B00080B58AB000AF786000237B627B681B689C
:1048C0005B693B627B681B685B68FB617B681B689C
:1048D0009B68BB617B681B68DB687B617B681B68CE
:1048E0001B693B617B681B689B69FB603B6A03F04B
:1048F0000103002B7CD0BB6903F00103002B23D004
:104900007B681B6801229A60BB6903F00203002BDD
:1049100003D0786800F083F916E0BB6903F0040364
:10492000002B04D07B6A43F400637B620CE0BB691C
:1049300003F00803002B04D07B6A43F480537B62AE
:1049400002E0786800F089F9BB6903F48073002BFA
:1049500024D07B681B684FF480729A60BB6903F4B3
:104960000073002B03D0786800F063F916E0BB6990
:1049700003F48063002B04D07B6A43F400537B6212
:104980000CE0BB6903F40063002B04D07B6A43F4A2
:1049900080437B6202E0786800F069F9BB6903F448
:1049A0008033002B24D07B681B684FF480329A60E0
:1049B000BB6903F40033002B03D0786800F043F99F
:1049C00016E0BB6903F48023002B04D07B6A43F418
:1049D00000437B620CE0BB6903F40023002B04D08E
:1049E0007B6A43F480337B6202E0786800F049F927
:1049F0003B6A03F00803002B0CD07B6903F0100323
:104A0000002B07D07B6A43F400737B627B681B68D2
:104A10001022DA603B6A03F00403002B0BD07B69A1
:104A200003F00803002B06D07B681B680822DA60BD
:104A3000786800F030F93B6A03F00203002B09D0DC
:104A40007B681B68DB6803F00303002B02D07868E7
:104A5000FCF7F0FD3B6A03F04003002B0CD03B69F0
:104A600003F01003002B07D07B6A43F480637B6262
:104A70007B681B6810221A613B6A03F02003002B3D
:104A80000BD03B6903F00803002B06D07B681B6842
:104A900008221A61786800F008F93B6A03F01003F5
:104AA000002B09D07B681B681B6903F00303002BF4
:104AB00002D07868FCF7DCFD3B6A03F40033002B7E
:104AC0000BD0FB6903F01003002B06D07B681B683A
:104AD00010225A60786800F0F2F83B6A03F48033E1
:104AE000002B0BD0FB6903F00803002B06D07B687A
:104AF0001B6808225A60786800F0EBF83B6A03F400
:104B00000043002B7BD0FB6903F00403002B72D021
:104B10003B6A03F48073002B08D0FB6803F00103A9
:104B2000002B03D07B6A43F001037B623B6A03F4F2
:104B30000073002B08D0FB6803F00203002B03D0A6
:104B40007B6A43F002037B623B6A03F48063002BC1
:104B500008D0FB6803F00403002B03D07B6A43F00A
:104B600004037B623B6A03F40063002B43D0FB68C1
:104B700003F07003002B3ED0FB6803F07003602B42
:104B80002BD0602B2ED8502B22D0502B2AD8402B44
:104B900019D0402B26D8302B10D0302B22D8102BF8
:104BA00002D0202B05D01DE07B6A43F008037B6216
:104BB00019E07B6A43F010037B6214E07B6A43F0E8
:104BC00020037B620FE07B6A43F040037B620AE0D4
:104BD0007B6A43F080037B6205E07B6A43F4807369
:104BE0007B6200E000BF7B681B689A697B681B687A
:104BF00022F070029A617B681B6804225A607B6A0B
:104C0000002B08D07B685A6A7B6A1A437B685A6219
:104C1000786800F068F800BF2837BD4680BD80B4D2
:104C200083B000AF786000BF0C37BD465DF8047BF1
:104C3000704780B483B000AF786000BF0C37BD46CA
:104C40005DF8047B704780B483B000AF786000BF2C
:104C50000C37BD465DF8047B704780B483B000AF6D
:104C6000786000BF0C37BD465DF8047B704780B4A8
:104C700083B000AF786000BF0C37BD465DF8047BA1
:104C8000704780B483B000AF786000BF0C37BD467A
:104C90005DF8047B704780B483B000AF786000BFDC
:104CA0000C37BD465DF8047B704780B483B000AF1D
:104CB000786000BF0C37BD465DF8047B704780B458
:104CC00083B000AF786000BF0C37BD465DF8047B51
:104CD000704780B483B000AF786000BF0C37BD462A
:104CE0005DF8047B704780B483B000AF786000BF8C
:104CF0000C37BD465DF8047B7047000080B485B07A
:104D000000AF78607B6803F00703FB600C4BDB6847
:104D1000BB60BA684FF6FF031340BB60FB681A0222
:104D2000BB68134343F0BF6343F40033BB60044AE2
:104D3000BB68D36000BF1437BD465DF8047B704785
:104D400000ED00E080B400AF044BDB681B0A03F009
:104D500007031846BD465DF8047B704700ED00E090
:104D600080B483B000AF0346FB7197F90730002B86
:104D70000BDBFB7903F01F02074997F907305B094A
:104D8000012000FA02F241F8232000BF0C37BD4693
:104D90005DF8047B704700BF00E100E080B483B0A1
:104DA00000AF0346FB7197F90730002B12DBFB794C
:104DB00003F01F020A4997F907305B09012000FA46
:104DC00002F2203341F82320BFF34F8F00BFBFF31F
:104DD0006F8F00BF00BF0C37BD465DF8047B704786
:104DE00000E100E080B483B000AF03463960FB719E
:104DF00097F90730002B0ADB3B68DAB20C4997F9C8
:104E000007301201D2B20B4483F800230AE03B685A
:104E1000DAB20849FB7903F00F03043B1201D2B266
:104E20000B441A7600BF0C37BD465DF8047B704713
:104E300000E100E000ED00E080B489B000AFF86070
:104E4000B9607A60FB6803F00703FB61FB69C3F19B
:104E50000703042B28BF0423BB61FB690433062B23
:104E600002D9FB69033B00E000237B614FF0FF3276
:104E7000BB6902FA03F3DA43BB681A407B699A40C4
:104E80004FF0FF317B6901FA03F3D9437B680B4094
:104E9000134318462437BD465DF8047B704780B540
:104EA00082B000AF78607868FFF728FF00BF08374E
:104EB000BD4680BD80B586B000AF0346B9607A605C
:104EC000FB7300237B61FFF73DFF78617A68B96867
:104ED0007869FFF7B1FF024697F90F30114618467F
:104EE000FFF780FF00BF1837BD4680BD80B582B098
:104EF00000AF0346FB7197F907301846FFF730FF04
:104F000000BF0837BD4680BD80B582B000AF034604
:104F1000FB7197F907301846FFF740FF00BF0837CD
:104F2000BD4680BD80B586B000AF786000237B6150
:104F3000FFF726F838617B68002B01D1012399E047
:104F40007B68022283F835207B68002283F83420B6
:104F50007B681B681A687B681B6822F001021A6074
:104F60000FE0FFF70DF802463B69D31A052B08D96D
:104F70007B6820225A657B68032283F8352003234F
:104F800078E07B681B681B6803F00103002BE8D105
:104F90007B681B681B687B617A69384B13407B61B7
:104FA0007B685A687B689B681A437B68DB681A4396
:104FB0007B681B691A437B685B691A437B689B6942
:104FC0001A437B68DB691A437B681B6A13437A695F
:104FD00013437B617B685B6A042B07D17B68DA6AC9
:104FE0007B681B6B13437A6913437B617B681B6887
:104FF0007A691A607B681B685B697B617B6923F057
:1050000007037B617B685B6A7A6913437B617B681A
:105010005B6A042B17D17B689B6A7A6913437B61B7
:105020007B68DB6A002B0ED0786800F001FB03463A
:10503000002B08D07B6840225A657B68012283F8E8
:105040003520012316E07B681B687A695A6178680D
:1050500000F0B8FA0346FB607B68DB6D3F229A40A4
:10506000FB689A607B6800225A657B68012283F89E
:105070003520002318461837BD4680BD3F8010F00C
:1050800080B586B000AFF860B9607A603B600023FD
:10509000FB75FB689B6D3B61FB6893F83430012B1B
:1050A00001D1022340E0FB68012283F83420FB6831
:1050B00093F83530DBB2012B2FD1FB68022283F845
:1050C0003520FB6800225A653B687A68B968F86841
:1050D00000F04AFAFB68DB6D3F229A403B699A6018
:1050E000FB681B681A68FB681B6842F016021A60AE
:1050F000FB681B6C002B07D0FB681B681A68FB68F9
:105100001B6842F008021A60FB681B681A68FB689B
:105110001B6842F001021A6005E0FB68002283F878
:1051200034200223FB75FB7D18461837BD4680BD31
:1051300080B584B000AF78607B689B6DFB60FEF744
:105140001FFFB8607B6893F83530DBB2022B08D0C4
:105150007B6880225A657B68002283F83420012313
:1051600052E07B681B681A687B681B6822F0160295
:105170001A607B681B685A697B681B6822F0800292
:105180005A617B681B6C002B03D17B689B6C002BE6
:1051900007D07B681B681A687B681B6822F00802CE
:1051A0001A607B681B681A687B681B6822F0010222
:1051B0001A6013E0FEF7E4FE0246BB68D31A052B23
:1051C0000CD97B6820225A657B68032283F835203E
:1051D0007B68002283F83420032315E07B681B687A
:1051E0001B6803F00103002BE4D17B68DB6D3F22D9
:1051F0009A40FB689A607B68012283F835207B68BF
:10520000002283F83420002318461037BD4680BDA5
:1052100080B483B000AF78607B6893F83530DBB240
:10522000022B04D07B6880225A6501230CE07B6846
:10523000052283F835207B681B681A687B681B6829
:1052400022F001021A60002318460C37BD465DF8B3
:10525000047B704780B586B000AF78600023BB60E8
:105260008E4B1B688E4AA2FB03239B0A7B617B68E3
:105270009B6D3B613B691B68FB607B68DB6D0822B3
:105280009A40FB681340002B1AD07B681B681B6890
:1052900003F00403002B13D07B681B681A687B683B
:1052A0001B6822F004021A607B68DB6D08229A40BA
:1052B0003B699A607B685B6D43F001027B685A65CD
:1052C0007B68DB6D01229A40FB681340002B12D0F3
:1052D0007B681B685B6903F08003002B0BD07B6845
:1052E000DB6D01229A403B699A607B685B6D43F0FD
:1052F00002027B685A657B68DB6D04229A40FB687A
:105300001340002B12D07B681B681B6803F002035C
:10531000002B0BD07B68DB6D04229A403B699A60BE
:105320007B685B6D43F004027B685A657B68DB6DCC
:1053300010229A40FB681340002B43D07B681B6807
:105340001B6803F00803002B3CD07B68DB6D102248
:105350009A403B699A607B681B681B6803F4802352
:10536000002B18D07B681B681B6803F40023002BFC
:1053700008D17B681B6C002B24D07B681B6C786881
:1053800098471FE07B689B6C002B1BD07B689B6C55
:105390007868984716E07B681B681B6803F4807385
:1053A000002B07D17B681B681A687B681B6822F09A
:1053B00008021A607B681B6C002B03D07B681B6C97
:1053C000786898477B68DB6D20229A40FB68134021
:1053D000002B00F08F807B681B681B6803F01003B4
:1053E000002B00F087807B68DB6D20229A403B69B0
:1053F0009A607B6893F83530DBB2052B36D17B6839
:105400001B681A687B681B6822F016021A607B68AA
:105410001B685A697B681B6822F080025A617B68AE
:105420001B6C002B03D17B689B6C002B07D07B6827
:105430001B681A687B681B6822F008021A607B6888
:10544000DB6D3F229A403B699A607B68012283F8BA
:1054500035207B68002283F834207B681B6D002B8D
:105460007ED07B681B6D7868984779E07B681B6805
:105470001B6803F48023002B1DD07B681B681B680E
:1054800003F40023002B0DD17B685B6C002B31D023
:105490007B685B6C786898472CE000BF5C0000205C
:1054A000B5814E1B7B68DB6B002B23D07B68DB6BED
:1054B000786898471EE07B681B681B6803F480735C
:1054C000002B0FD17B681B681A687B681B6822F071
:1054D00010021A607B68012283F835207B68002265
:1054E00083F834207B68DB6B002B03D07B68DB6B9D
:1054F000786898477B685B6D002B32D07B685B6D6A
:1055000003F00103002B22D07B68052283F83520AD
:105510007B681B681A687B681B6822F001021A60AE
:10552000BB680133BB607A699A4207D37B681B680A
:105530001B6803F00103002BF2D100E000BF7B6881
:10554000012283F835207B68002283F834207B68B1
:10555000DB6C002B05D07B68DB6C7868984700E03B
:1055600000BF1837BD4680BD80B485B000AFF8607D
:10557000B9607A603B60FB681B681A68FB681B684F
:1055800022F480221A60FB681B683A685A60FB6844
:105590009B68402B08D1FB681B687A689A60FB689F
:1055A0001B68BA68DA6007E0FB681B68BA689A6033
:1055B000FB681B687A68DA6000BF1437BD465DF887
:1055C000047B704780B485B000AF78607B681B684F
:1055D000DBB2103B144AA2FB03231B09FB60134AF6
:1055E000FB6813441B781A467B68DA65FB68032B5B
:1055F00009D97B681B6823F47F7323F003031A1D0A
:105600007B689A6507E07B681B6823F47F7323F04F
:1056100003037A6893657B689B6D18461437BD4613
:105620005DF8047B704700BFABAAAAAAB0140108BA
:1056300080B485B000AF78600023FB737B689B6A01
:10564000BB607B689B69002B1FD1BB68032B56D8BE
:1056500001A252F823F000BF695600087B560008EB
:1056600069560008FF5600087B68DB6A03F0807308
:10567000002B46D00123FB7343E07B68DB6AB3F168
:10568000C07F40D10123FB733DE07B689B69B3F58C
:10569000005F21D1BB68032B37D801A252F823F059
:1056A000B1560008B7560008B1560008C9560008A0
:1056B0000123FB7330E07B68DB6A03F08073002B0F
:1056C00025D00123FB7322E07B68DB6AB3F1C07F46
:1056D0001FD10123FB731CE0BB68022B03D9BB68FD
:1056E000032B03D018E00123FB7315E07B68DB6A12
:1056F00003F08073002B0ED00123FB730BE000BF7F
:105700000AE000BF08E000BF06E000BF04E000BF01
:1057100002E000BF00E000BFFB7B18461437BD4627
:105720005DF8047B704700BF80B489B000AF78603B
:10573000396000237B6100233B610023BB610023B0
:10574000FB616BE10122FB6902FA03F37B613B68B9
:105750001B687A6913403B613A697B699A4240F061
:105760005A813B685B6803F00303012B05D03B685B
:105770005B6803F00303022B30D17B689B68BB613D
:10578000FB695B00032202FA03F3DB43BA691340AF
:10579000BB613B68DA68FB695B0002FA03F3BA6934
:1057A0001343BB617B68BA699A607B685B68BB61C5
:1057B0000122FB6902FA03F3DB43BA691340BB61C0
:1057C0003B685B681B0903F00102FB6902FA03F303
:1057D000BA691343BB617B68BA695A603B685B680E
:1057E00003F00303032B17D07B68DB68BB61FB6905
:1057F0005B00032202FA03F3DB43BA691340BB6187
:105800003B689A68FB695B0002FA03F3BA691343C9
:10581000BB617B68BA69DA603B685B6803F00303CD
:10582000022B23D1FB69DA087B68083253F8223057
:10583000BB61FB6903F007039B000F2202FA03F32D
:10584000DB43BA691340BB613B681A69FB6903F02B
:1058500007039B0002FA03F3BA691343BB61FB69B8
:10586000DA087B680832B96943F822107B681B6844
:10587000BB61FB695B00032202FA03F3DB43BA69F5
:105880001340BB613B685B6803F00302FB695B008C
:1058900002FA03F3BA691343BB617B68BA691A6001
:1058A0003B685B6803F44033002B00F0B4800023B6
:1058B000FB60604B5B6C5F4A43F4804353645D4B19
:1058C0005B6C03F48043FB60FB685B4AFB699B08ED
:1058D000023352F82330BB61FB6903F003039B00E2
:1058E0000F2202FA03F3DB43BA691340BB617B6802
:1058F000524A93422BD07B68514A934225D07B6811
:10590000504A93421FD07B684F4A934219D07B681C
:105910004E4A934213D07B684D4A93420DD07B6828
:105920004C4A934207D07B684B4A934201D10723EC
:105930000EE008230CE006230AE0052308E0042318
:1059400006E0032304E0022302E0012300E0002339
:10595000FA6902F0030292009340BA691343BB61F3
:105960003549FB699B080233BA6941F823203B4B58
:105970009B68BB613B69DB43BA691340BB613B6811
:105980005B6803F48013002B03D0BA693B691343AF
:10599000BB61324ABB699360304BDB68BB613B69DA
:1059A000DB43BA691340BB613B685B6803F40013D7
:1059B000002B03D0BA693B691343BB61274ABB691B
:1059C000D360264B5B68BB613B69DB43BA6913401C
:1059D000BB613B685B6803F40033002B03D0BA69FA
:1059E0003B691343BB611D4ABB6953601B4B1B687A
:1059F000BB613B69DB43BA691340BB613B685B68D1
:105A000003F48033002B03D0BA693B691343BB61B5
:105A1000124ABB691360FB690133FB61FB690F2B01
:105A20007FF690AE00BF00BF2437BD465DF8047B13
:105A3000704700BF003802400038014000000240BB
:105A40000004024000080240000C02400010024026
:105A50000014024000180240001C0240003C0140BB
:105A600080B485B000AF78600B467B807B681A6994
:105A70007B881340002B02D00123FB7301E000233D
:105A8000FB73FB7B18461437BD465DF8047B7047FB
:105A900080B483B000AF78600B467B8013467B7088
:105AA0007B78002B03D07A887B689A6103E07B883F
:105AB0001A047B689A6100BF0C37BD465DF8047B11
:105AC000704780B485B000AF78600B467B807B6800
:105AD0005B69FB607A88FB6813401A04FB68D94352
